:020000040800F2
:1000000030070020D9120008970100089901000864
:100010009D010008A1010008A501000800000000E2
:10002000000000000000000000000000A90100081E
:10003000AB01000800000000AD010008650E0008DB
:10004000F3120008F3120008F3120008F31200087C
:10005000F3120008F3120008F3120008F31200086C
:10006000F3120008F3120008F3120008F31200085C
:10007000F3120008F3120008F3120008F31200084C
:10008000F3120008F3120008F3120008F31200083C
:10009000F3120008F3120008F31200082905000803
:1000A000F3120008F3120008F3120008F31200081C
:1000B000750B00085D0B0008F3120008F31200082E
:1000C000F3120008F3120008F3120008F3120008FC
:1000D000F3120008CF06000887110008F312000889
:1000E000F3120008F3120008F312000800F002F8FF
:1000F00000F042F80AA090E8000C82448344AAF180
:100100000107DA4501D100F037F8AFF2090EBAE87D
:100110000F0013F0010F18BFFB1A43F0010318473B
:1001200094430000B4430000103A24BF78C878C15B
:10013000FAD8520724BF30C830C144BF04680C60ED
:10014000704700000023002400250026103A28BF35
:1001500078C1FBD8520728BF30C148BF0B60704739
:10016000642903F0AF83782903F0E8830020704707
:100170001FB51FBD10B510BD03F098FC1146FFF769
:10018000F7FF00F038FD03F0B6FC03B4FFF7F2FF11
:1001900003BC00F0D9F9704700BFFEE700BFFEE7DF
:1001A00000BFFEE700BFFEE77047704770470000E2
:1001B0000CB50020019000908548006840F4803024
:1001C0008349086000BF8248006800F40030009056
:1001D0000198401C0190009818B90198B0F5A06FE3
:1001E000F1D17B48006800F4003010B1012000908C
:1001F00001E0002000900098012843D17548006874
:1002000040F01000734908600846006820F00300C1
:1002100008600846006840F0020008606C484068CA
:100220006B4948600846406848600846406840F4AA
:10023000806048600846406820F47C1048600846AA
:10024000406840F4E81048600846006840F080705C
:10025000086000BF5E48006800F000700028F9D018
:100260005B48406820F003005949486008464068F0
:1002700040F00200486000BF5548406800F00C00A4
:100280000828F9D10CBD10B5FFF792FF10BD10B5CD
:100290004F48006840F001004D490860084640683A
:1002A0004D4908404A494860084600684B490840A3
:1002B000474908600846006820F480200860084626
:1002C000406820F4FE0048604FF41F008860FFF78C
:1002D000DAFF4FF000604249086010BD10B501F030
:1002E000CBFF012002F04DF800BF212002F007F8FB
:1002F0000028FAD0102001F047FB022001F030FB6B
:10030000002002F05EF84FF4806002F063F80020F5
:1003100002F069F84FF46011002002F035F8012076
:1003200002F03EF800BF392001F0E9FF0028FAD0C2
:10033000022002F038F800BF02F03EF80828FBD196
:1003400010BD10B5002100200022214B5B6803F096
:100350000C0121B1042906D0082928D107E0214B3E
:10036000214C236027E01F4B1F4C236023E0184BD8
:100370005B6803F47010164B5B6803F48032022351
:1003800003EB904022B9194B4343174C23600DE017
:100390000F4B5B6803F4003323B1144B4343124CFF
:1003A000236003E00F4B43430F4C236003E00D4BEE
:1003B0000D4C236000BF00BF054B5B68C3F3031304
:1003C0000B4CE15C084B1B68CB40074C236010BD15
:1003D00000100240002002400000FFF8FFFFF6FE80
:1003E00008ED00E000127A000000002000093D0046
:1003F00004000020002140E000BF00BF00BF00BF9C
:1004000000BF00BF00BF00BF00BF00BF00BF00BFF4
:1004100000BF00BF00BF00BF00BF00BF00BF00BFE4
:1004200000BF00BF00BF00BF00BF00BF00BF00BFD4
:1004300000BF00BF00BF00BF00BF00BF00BF00BFC4
:1004400000BF00BF00BF00BF00BF00BF00BF00BFB4
:1004500000BF00BF00BF00BF00BF00BF00BF00BFA4
:1004600000BF00BF00BF00BF00BF00BF00BF00BF94
:1004700000BF00BF00BF00BF491C8142BCDB70470A
:1004800010B50346002404E04FF47A70FFF7B2FF82
:10049000641C9C42F8DB10BD08B50121082002F065
:1004A00059F81020ADF800008DF8030003208DF8F6
:1004B00002006946034801F091FD1021014801F056
:1004C0003CFE08BD000C01401FB50121092002F0CF
:1004D00041F82020ADF80C0048208DF80F0003A94A
:1004E000174801F07BFD0521012001F08DFE202041
:1004F000019000208DF808000C208DF809000120E3
:100500008DF80A0001A801F0ABF917208DF8000062
:1005100002208DF8010001208DF802008DF8030003
:10052000684600F0FEFE1FBD10B5202001F0FEF968
:1005300010B1012003490870202001F008FA10BD15
:10054000000C014014000020014600BF7047C2B2F9
:100550007C4B1A8000BF7B4A121F128802F04002B7
:10056000002AF8D0704710B586B00446012144F245
:10057000050001F0EFFF4FF40070ADF81400032008
:100580008DF8160018208DF8170005A96E4801F0A7
:1005900025FD4FF48060ADF8140004208DF817009D
:1005A00005A9694801F01AFD25208DF800000020FA
:1005B0008DF801008DF8020001208DF803006846D7
:1005C00000F0AFFE01940020ADF80800ADF80A007D
:1005D000ADF80C00ADF810000C20ADF80E0001A92C
:1005E0005848001F02F06BFF012240F22551554888
:1005F000001F02F0FCFF01215248001F02F0EBFF38
:1006000006B010BD10B551480078442803D14F48BA
:100610004078412816D04D48427801784CA003F02C
:1006200011F9002406E04948015D52A003F00AF9DF
:10063000601CC4B2514800788442F4DB50A003F03F
:1006400001F910BD414880784C490978884217D09B
:100650003E488178494802784AA003F0F3F8002424
:1006600006E03A48015D43A003F0ECF8601CC4B218
:10067000424800788442F4DB41A003F0E3F8E0E76D
:100680003E4800780C2815D03C4801784BA003F078
:10069000D9F8002406E02D48015D36A003F0D2F819
:1006A000601CC4B2354800788442F4DB34A003F007
:1006B000C9F8C6E74A4825490A6802604A684260A4
:1006C0008968816001204749086000BFB9E710B51B
:1006D00040F225511B48001F03F06EF880B3194803
:1006E000001F02F0E9FFC4B21848244909784454B5
:1006F00022480078401C2149087008460078642888
:1007000001DB002008703848007854280ED13748A3
:10071000007841280AD1364800780D2806D10A2CE5
:1007200004D1FFF76FFF0020144908702F480078AC
:100730002D4908702E4800782C4908702C48047008
:1007400010BD0000043801400008014050000020A6
:1007500053544D33323A20686561642030782578EF
:100760002030782578206572726F722C2064617455
:10077000613A200030782578200000001C0000201D
:100780000D0A000053544D33323A2073747275636E
:1007900074206C656E20696E666F20256420213D93
:1007A0002072656376206C656E2025642065727208
:1007B0006F722C20646174613A20000053544D33F1
:1007C000323A2072656376206C656E202564206560
:1007D00072726F722C20646174613A200000000014
:1007E000B4000020280000201F0000201E00002070
:1007F0001D00002070B504460D46002C0BDA644243
:100800004FF480517D4801F098FC4FF400417B4843
:1008100001F091FC09E04FF48051784801F08BFC25
:100820004FF40041754801F088FC002D0BDA6D4251
:100830004FF48051724801F080FC4FF40041704841
:1008400001F079FC09E04FF480516D4801F073FC30
:100850004FF400416A4801F070FCA1B2694802F00F
:10086000A5FDA9B2674802F0A7FD70BD30B589B0FB
:1008700005460C460121C80201F06CFE012104204E
:1008800001F068FE4FF41060ADF8200018208DF8DC
:10089000230003208DF8220008A9594801F09EFB8F
:1008A000681E80B2ADF81800601E80B2ADF814006A
:1008B0000020ADF81A00ADF8160005A9514801F066
:1008C00081FF6020ADF804000120ADF80600002093
:1008D000ADF80A00ADF80C0001A94A4801F0AFFFDD
:1008E0000821484802F0FAFB01A9464801F0E9FF57
:1008F0000821444802F0FBFB01A9424802F02EF80F
:100900000821404802F000FC01A93E4802F071F8BD
:1009100008213C4802F001FC01213A4802F0AEFBFC
:100920000121384802F0AAFA0121364802F0B2FA51
:1009300009B030BD30B589B005460C460121042010
:1009400001F015FE0121082001F004FE4FF4707043
:10095000ADF8200018208DF8230003208DF8220028
:1009600008A9264801F03AFB681E80B2ADF81800CD
:10097000601E80B2ADF814000020ADF81A00ADF88A
:10098000160005A9204801F01DFF6020ADF8040005
:100990000120ADF806000020ADF80A00ADF80C000B
:1009A00001A9194801F04BFF0821164802F096FBF7
:1009B00001A9154801F085FF0821134802F097FBB3
:1009C00001A9114801F0CAFF08210F4802F09CFB61
:1009D00001A90D4802F00DF808210B4802F09DFB1B
:1009E0000121094802F04AFB0121074802F046FABA
:1009F0000121054802F04EFA09B030BD000C01405B
:100A000000080140002C01400008004000B587B0FC
:100A10000121084601F0ABFD0121042001F09AFDFF
:100A20000320ADF8000004208DF803006946574804
:100A300001F0D4FA04A802F0F1F90020ADF810009A
:100A40004FF6FF70ADF814000020ADF81600ADF8B9
:100A5000120004A94FF0804001F0B4FE0A231A46A8
:100A60000321580702F0BDFA01A802F0EAF90A20B2
:100A7000ADF80C0001A9400702F037F90121880701
:100A800002F0C2FC01221146900702F012FA002186
:100A90004FF0804002F086FC0121880702F0EEF959
:100AA00007B000BD00B587B00121022001F05FFD55
:100AB0000121042001F04EFDC020ADF8000004200B
:100AC0008DF803006946314801F088FA04A802F065
:100AD000A5F90020ADF810004FF6FF70ADF8140036
:100AE0000020ADF81600ADF8120004A9284801F066
:100AF00069FE0A231A460321254802F072FA01A86A
:100B000002F09FF90A20ADF80C0001A9204802F07C
:100B1000ECF801211E4802F077FC012211461C4826
:100B200002F0C7F900211A4802F03CFC01211848E4
:100B300002F0A4F907B000BD4FF08041898C08B2E3
:100B400000214FF080429184704711492431098877
:100B500008B200210E4A2432118070470C48103030
:100B600000880B481030008820F00100084910313F
:100B7000088070474FF08040008A4FF08040008A24
:100B800020F001004FF080410882704700080140CA
:100B90000004004010B504460120DE4908602046EC
:100BA000FFF728FC0020DC49C1F89001C4F1640083
:100BB000FFF720FC10BD10B50020D64908600024C6
:100BC00003E02046FFF7E6FF641C642CF9DD0120FA
:100BD000D049086010BD10B50120CE4908606424DA
:100BE00003E02046FFF7D6FF641E002CF9DA002050
:100BF000C849086010BD88B0002400250026A14621
:100C00004420C64908704120487010208870542044
:100C10000873412048730D2088730A20C873084662
:100C2000BF490860FFF75AFB4FF4A06000F074FB67
:100C3000FFF732FC0020B74908604FF4E130FFF7BE
:100C400092FC4FF4E13000F051FA03A801F015FCDA
:100C5000B4490798B0FBF1F70698B0FBF1F8B1483A
:100C60000599B1FBF0FAAF490498B0FBF1FB03988A
:100C7000B0FBF1F053465A460146CDE90087029099
:100C8000A9A002F0DFFDB5A002F0DCFD00F098FAAB
:100C9000B7A002F0D7FD00F0C1F9B8A002F0D2FD74
:100CA00000F0FAF901214FF4C850FFF7DFFD0021F1
:100CB0000846FFF79FFDB7A002F0C4FDFFF7A6FEB0
:100CC000FFF7F0FEB8A002F0BDFDBCA002F0BAFD37
:100CD000C0490846FFF78EFD4FF4FA70FFF7D0FBCE
:100CE00001208D49C1F890014FF496610846FFF745
:100CF00081FD4FF4FA70FFF7C3FB002085490860BF
:100D000000210846FFF776FD039803F0C2F8B24AC7
:100D1000B24BCDE9000103F00BF9074603F08CF864
:100D20008246BAF1807F00D31DE02AF07F40401E4A
:100D30004FF0E021486148170F21002807DA0A0721
:100D4000170EA74A00F00F031B1FD75403E00A0732
:100D5000130EA44A135400BF00204FF0E021886115
:100D60000720086100BF7CE06A498439086803F005
:100D7000B9FA0746294603F03BFA05469A49D1F8E5
:100D8000140103F0AFFA0746314603F031FA064684
:100D9000042000F06EFA804603F08CFA07464946BC
:100DA00003F026FA8146641C142C3CDB484603F011
:100DB000F3F9074600228D4B02F0B6FE824603F09F
:100DC0000BF800B25549A1F80700304603F0E4F9EA
:100DD00007460022854B02F0A7FE82460022844B84
:100DE00003F0A4F903D801204C49487202E0002026
:100DF0004A494872284603F0CFF9074600227B4B48
:100E000002F092FE82460022794B03F08FF903D85C
:100E100001204249887202E0002040498872002582
:100E20000026A94600247348C079734908707348A6
:100E3000007830B908460078012802D1FFF7BBFEE0
:100E400008E06E480078012804D16B48007808B9A2
:100E5000FFF7C1FE68480078684908700A20FFF76C
:100E60000FFB81E770B5FFF767FE404205B2FFF761
:100E70006CFE06B26248006801280ED1002060496D
:100E80000860604908605B48B0F803005E4908806C
:100E90005848B0F805005D4908805A4800680528A0
:100EA00005DB0020584908805849088004E055486F
:100EB0000068401C534908605448B0F9001052487B
:100EC000B0F90000FFF796FC1448A0F80350A0F812
:100ED00005604F48006838B14E4800780F49C87225
:100EE00000204B49086002E000200C49C872002431
:100EF0000DE00B480068005D4749088000BF464888
:100F0000001F008800F040000028F8D0641C102C5E
:100F1000EFD370BD9081214200802142C0000020AB
:100F20002000002040420F00535953434C4B3D25B5
:100F3000642C48434C4B3D25642C50434C4B313D75
:100F400025642C50434C4B323D25642C4144434393
:100F50004C4B3D2564204D487A0D0A006164635F67
:100F6000696E69742073746172740D0A0000000068
:100F70006164635F696E69740D0A00006770696F70
:100F80005F6D6F746F725F64697276655F696E69B9
:100F9000740D0A0070776D5F6F757075745F7462A1
:100FA000363631320D0A0000656E636F6465725F1C
:100FB00074696D335F696E69740D0A0073746D3303
:100FC0003220696E69742066696E69736865640DA4
:100FD0000A00000050FBFFFF7B14AE47E17A943F0C
:100FE00018ED00E000E400E0000021420000344081
:100FF0000000E03FB4000020340000203500002055
:1010000028000020240000203600002038000020A6
:10101000300000202C0000200438014008B50121D8
:10102000052001F097FA01212D4801F0A8F84FF4AE
:101030001040ADF8000010208DF8030003208DF85B
:1010400002006946274800F0C9FF4FF48051254847
:1010500001F073F84FF40041224801F06EF80121CD
:10106000082001F077FA4FF41040ADF8000010208E
:101070008DF8030003208DF8020069461A4800F03D
:10108000ADFF4FF48051184801F057F84FF400417C
:10109000154801F052F808BD08B50121082001F0FB
:1010A00059FA0820ADF8000004208DF80300032051
:1010B0008DF8020069460C4800F090FF01210520E0
:1010C00001F048FA2020ADF8000004208DF803005C
:1010D00003208DF802006946024800F07FFF08BD3A
:1010E0000002300000080140000C014010B586B03D
:1010F00004460121042001F02DFA0121480401F0E9
:1011000036FA0420ADF8140003208DF816001820DC
:101110008DF8170005A9254800F060FF0820ADF8FC
:10112000140004208DF8170005A9204800F056FF90
:1011300026208DF8000000208DF801008DF80200B7
:1011400001208DF80300684600F0EBF801940020C0
:10115000ADF80800ADF80A00ADF80C00ADF81000CD
:101160000C20ADF80E0001A9114802F0A8F90122E7
:1011700040F225510E4802F03AFA01210C4802F0E3
:101180002AFA06B010BD10B540F22551084802F009
:1011900013FB50B1064802F08FFAC4B20548047040
:1011A0000120054908600548047010BD0008014091
:1011B000004400402C000020300000203A000020B5
:1011C00000B587B001214FF4037001F0C3F94FF46B
:1011D000004001F023F91020ADF8040000208DF844
:1011E000070001A9374800F0F9FE374800F002F97E
:1011F000002002908DF80C008DF80D004FF4602057
:1012000004900020059001208DF8180002A92E48B6
:1012100000F017F901212C4800F03FF92A4800F0AE
:101220005EF900BF284800F05FF90028FAD126488F
:1012300000F064F900BF244800F065F90028FAD1F5
:1012400007B000BD10B504460723012221461E4801
:1012500000F08FF901211C4800F05FF900BF022166
:10126000194800F0CBFA0028F9D0174800F0E8F947
:1012700010BD2DE9FF5F82460AF0FF00FFF7E2FF95
:10128000834602F006FE4FF06632104BCDE90001B6
:1012900002F04EFE064600220D4B02F049FE0022EF
:1012A0000C4BCDE9020102F03FFC804600224FF0DA
:1012B000804302F03DFE044602F08EFD04B0BDE81E
:1012C000F09F0000000801400024014066660A40CB
:1012D00000408F400000B04009488047094800475F
:1012E000FEE7FEE7FEE7FEE7FEE7FEE7FEE7FEE7D6
:1012F000FEE7FEE704480549054A064B7047000033
:101300008F020008ED0000083001002030070020A7
:10131000300300203003002031490143314A11607D
:10132000704770B5002100230F22C47804B32D4C00
:10133000246804F4E064C4F5E064210AC1F1040304
:10134000CA40447804FA03F1847814402143090127
:10135000254C0678A155047804F01F050124AC4003
:1013600005786D11AD0005F1E025C5F8004109E0F3
:10137000047804F01F050124AC401C4D067876115A
:1013800045F8264070BD1A4A0A400243154B1B1F00
:101390001A60704739B1134A121D12680243114B8B
:1013A0001B1D1A6006E00F4A121D126882430D4B86
:1013B0001B1D1A607047042808D14FF0E02109690D
:1013C00041F004014FF0E022116107E04FF0E0210D
:1013D000096921F004014FF0E0221161704700001B
:1013E0000000FA050CED00E000E400E080E100E020
:1013F00080FFFF1F10B50446FA48844208D101213E
:10140000401501F0C1F80021601501F0BDF817E0AA
:10141000F548844208D10121001501F0B5F80021FA
:10142000201501F0B1F80BE0F048844208D1012109
:10143000C80301F0A9F800214FF4004001F0A4F81E
:1014400010BD30B50246002000235068E84C204013
:101450000D790C6844EA0524204350609068E54CFF
:101460002040D1E902542C434D7944EA45042043FD
:101470009060D06A20F470000C7C641EE4B22343B8
:1014800040EA0350D06230BD00210160017141711A
:101490008160C16001210174704721B1826842F00E
:1014A0000102826003E0826822F0010282607047DC
:1014B00021B1826842F48072826003E0826822F483
:1014C00080728260704710B50023CBB21AB14468B5
:1014D0001C43446002E044689C43446010BD816842
:1014E00041F0080181607047014600208A6802F0DF
:1014F00008020AB1012000E000207047816841F035
:10150000040181607047014600208A6802F00402ED
:101510000AB1012000E00020704721B1826842F446
:10152000A002826003E0826822F4A0028260704719
:10153000014600208A6802F480020AB1012000E01E
:101540000020704710B50A4600210023416821F4AD
:101550006041531E41EA4331416010BD21B14268F0
:1015600042F40062426003E0426822F4006242609A
:101570007047F0B504460D4600200021092D11DD0D
:10158000E068A5F10A0606EB4607072606FA07F10A
:101590008843A5F10A0606EB460603FA06F108435E
:1015A000E0600CE0206905EB4507072606FA07F125
:1015B000884305EB450603FA06F108432061072A34
:1015C0000FDA606B561E06EB86071F2606FA07F138
:1015D0008843561E06EB860605FA06F1084360634B
:1015E00022E00D2A0FDA206BD61F06EB86071F2696
:1015F00006FA07F18843D61F06EB860605FA06F1C0
:101600000843206310E0E06AA2F10D0606EB8607AE
:101610001F2606FA07F18843A2F10D0606EB86069F
:1016200005FA06F10843E062F0BD21B1826842F498
:101630008012826003E0826822F480128260704728
:101640000146C86C80B2704766484C3000687047ED
:1016500021B1426842F48062426003E0426822F4B1
:1016600080624260704721B1426842F48052426019
:1016700003E0426822F48052426070470A4600212B
:10168000816821F4E04111438160704721B1826893
:1016900042F40042826003E0826822F400428260E9
:1016A000704721B1826842F40212826003E08268CE
:1016B00022F4021282607047014600208A6802F418
:1016C00000120AB1012000E000207047F0B5044686
:1016D0001546002000220026092911DDE068A1F14D
:1016E0000A0707EB470C072707FA0CF29043A1F112
:1016F0000A0707EB470703FA07F21043E0600CE024
:10170000206901EB410C072707FA0CF2904301EB2B
:10171000410703FA07F210432061A06BC0F30156A2
:10172000EF1C06F1010CA7EB0C0707EB870C1F273A
:1017300007FA0CF29043EF1C06F1010CA7EB0C0723
:1017400007EB870701FA07F21043A063F0BD10B55D
:101750000A4600210023816B21F44011531E41EA07
:101760000351816310BD08B5002300930090009BD6
:101770000B440093009B1A6008BD08B50246002088
:101780000090009201F12800009B184400900098FE
:10179000006880B208BD0A4600214168164B194016
:1017A0001143416070474162826270470A460021DE
:1017B000416821F01F0111434160704740B1094960
:1017C0000831096841F40001064A0832116007E057
:1017D00004490831096821F40001024A0832116005
:1017E000704700000024014000280140003C0140F7
:1017F000FFFEF0FFFDF7F1FFFFFD3FFF0246002077
:1018000013680B400BB1012000E000207047CA4371
:101810000260704770B502460020002300240B12BE
:101820005568CEB205EA060415681D4015B10CB125
:10183000012000E0002070BD00220A12D3430360A3
:1018400070470000002044490860091D0860091D18
:101850000860091D086041483F491431086070471D
:1018600000213D498279002A3AD00A46126803686D
:101870009A430B461A600A1D126803689A430B1DAF
:101880001A60027911440A6803681A430A60324AEE
:101890000832126803689A432F4B08331A601A1DE6
:1018A000126803689A432C4B0C331A604279102A51
:1018B0000ED11A1F126803681A43274B08331A60A7
:1018C0001A1D126803681A43234B0C331A600DE08B
:1018D0002149427911440A6803681A430A6005E005
:1018E000027911440A6803689A430A60704700212C
:1018F000016001710C21417100218171704716490D
:10190000103109680143144A1032116070470146D2
:101910000020114A143212680A400AB1012000E086
:10192000002070470C4914310860704701460020C0
:101930000022094B1B6803EA0102074B14331B68A2
:101940000B4013B10AB1012000E0002070470249AA
:10195000143108607047000000040140FFFF0F00D1
:1019600001460020FE4A106800F03800084310606D
:101970007047FB49096821F00801F94A11601146D6
:101980000968014311607047F549096821F01001A9
:10199000F34A116011460968014311607047F1482C
:1019A000EF494860F04848607047EE48EC494860AD
:1019B000ED4848607047EA48006940F08000E84917
:1019C00008617047E648006940F08000E44908611A
:1019D00070470420E249C96801F0010109B1012002
:1019E0000EE0DF49C96801F0040109B1022007E0F7
:1019F000DB49C96801F0100109B1032000E00420AF
:101A0000704700B502460423FFF7E3FF034603E0F7
:101A1000FFF7DFFF0346521E012B01D1002AF7D149
:101A200002B90523184600BD30B5044604254FF41D
:101A30003020FFF7E6FF0546042D17D1C84800699E
:101A400040F00200C649086108464461006940F060
:101A5000400008614FF43020FFF7D3FF0546C0482F
:101A6000006941F6FD710840BD490861284630BD56
:101A700010B504244FF43020FFF7C3FF0446042CB4
:101A800016D1B748006940F00400B549086108461E
:101A9000006940F0400008614FF43020FFF7B1FFCB
:101AA0000446AF48006941F6FB710840AC49086143
:101AB000204610BD00B502460423FFF78AFF034607
:101AC00003E0FFF786FF0346521E012B01D1002AD7
:101AD000F7D102B90523184600BD10B504244FF410
:101AE0003020FFF7E7FF0446042C16D19C4800691C
:101AF00040F004009A4908610846006940F040003F
:101B000008614FF43020FFF7D5FF04469448006980
:101B100041F6FB71084092490861204610BD002043
:101B20008F49C96901F0020109B1012000E00020DC
:101B3000704730B5A5250424FFF7F1FF00B100255B
:101B40004FF43020FFF75DFF0446042C3AD185485E
:101B500083498860844888600846006940F0200016
:101B600008610846006940F0400008614FF43020E9
:101B7000FFF747FF0446042C1BD17948006941F662
:101B8000DF710840764908610846006940F010009E
:101B9000086176480580E002FFF733FF0446052C14
:101BA00010D06F48006941F6EF7108406C49086138
:101BB00008E0052C06D06A48006941F6EF7108403C
:101BC00067490861204630BD78B506460C460425B5
:101BD00000200090E802FFF714FF0546042D24D1F1
:101BE0005F48006940F001005D4908613480E80207
:101BF000FFF707FF0546042D10D1B01C0090200C04
:101C000000990880E802FFF7FCFE05465448006989
:101C100041F6FE7108405249086106E050480069EB
:101C200041F6FE7108404E490861284678BD70B5FE
:101C300004460D460426F002FFF7E3FE0646042E96
:101C400011D14748006940F00100454908612580ED
:101C5000F002FFF7D6FE06464148006941F6FE71E4
:101C600008403F490861304670BD70B505460E46D4
:101C70000424E002FFF7C5FE0446042C17D13948BE
:101C800037498860384888600846006940F010008D
:101C900008612E80E002FFF7B4FE0446052C06D052
:101CA0002F48006941F6EF7108402D490861204630
:101CB00070BD2DE9F04304464FF6FF763746B04637
:101CC000B1460425E443E6B2C4F30727C4F307484A
:101CD0004FEA1469E802FFF794FE0546042D49D146
:101CE00020481F498860204888600846006940F005
:101CF00010000861FF2E06D01C4808300680E8025C
:101D0000FFF77FFE0546042D08D1FF2F06D01748A8
:101D10000A300780E802FFF774FE0546042D0AD159
:101D2000B8F1FF0F07D011480C30A0F80080E8028E
:101D3000FFF767FE0546042D0AD1B9F1FF0F07D062
:101D40000A480E30A0F80090E802FFF75AFE054658
:101D5000052D0FD00248006941F6EF71084007E0F9
:101D60000020024023016745AB89EFCD00F8FF1F3B
:101D7000664908612846BDE8F08330B5054604246D
:101D80004FF43020FFF73DFE0446042C41D160485B
:101D90005E4988605F4888600846006940F020001E
:101DA00008610846006940F0400008614FF43020A7
:101DB000FFF727FE0446042C22D15448006941F65F
:101DC000DF710840514908610846006940F0100081
:101DD00008611DB100205049088002E0A5204E494D
:101DE00008804FF43020FFF70CFE0446052C10D07D
:101DF0004648006941F6EF7108404449086108E02F
:101E0000052C06D04148006941F6DF7108403F4982
:101E10000861204630BDF0B505460E46174604243D
:101E20003B483A4988603B488860E002FFF7E9FD9B
:101E30000446042C19D13548006940F0100033499C
:101E4000086147F0F800304328433349891C088073
:101E5000E002FFF7D6FD0446052C06D02B480069AA
:101E600041F6EF710840294908612046F0BD274836
:101E7000C069800870472548006A704700202349E0
:101E8000096801F0200109B1012000E0002070473D
:101E900029B11E4A126902431C4B1A6104E01B4A15
:101EA00012698243194B1A617047014600200129CB
:101EB00008D1164AD26902F001020AB1012008E0F5
:101EC000002006E0114AD2680A400AB1012000E071
:101ED000002070470D49C860704704200B49C9684D
:101EE00001F0010109B101200EE00849C96801F0C3
:101EF000040109B1022007E00449C96801F010019A
:101F000009B1032000E004207047000000200240D7
:101F100023016745AB89EFCD00F8FF1F10B50446DC
:101F2000CC48844208D10121042000F02DFB00217F
:101F3000042000F029FB46E0C748844208D1012173
:101F4000082000F021FB0021082000F01DFB3AE0F2
:101F5000C248844208D10121102000F015FB002165
:101F6000102000F011FB2EE0BD48844208D1012171
:101F7000202000F009FB0021202000F005FB22E0DA
:101F8000B848844208D10121402000F0FDFA002128
:101F9000402000F0F9FA16E0B348844208D101214C
:101FA000802000F0F1FA0021802000F0EDFA0AE034
:101FB000AE48844207D10121801500F0E5FA0021E6
:101FC000A01500F0E1FA10BD10B50121084600F09F
:101FD000DBFA0021012000F0D7FA10BD2DE9F04115
:101FE000024600250026002000230024002791F847
:101FF00003C00CF00F0591F803C00CF0100CBCF1FD
:10200000000F03D091F802C04CEA050591F800C01A
:10201000BCF1000F31D0146800202BE04FF0010C10
:102020000CFA00F3B1F800C00CEA03069E4220D17E
:1020300083004FF00F0C0CFA03F7BC4305FA03FCC6
:102040004CEA040491F803C0BCF1280F06D14FF00C
:10205000010C0CFA00FCC2F814C00AE091F803C0AD
:10206000BCF1480F05D14FF0010C0CFA00FCC2F88E
:1020700010C0401C0828D1D31460B1F800C0BCF1D6
:10208000FF0F34DD546800202EE000F1080C4FF003
:10209000010808FA0CF3B1F800C00CEA03069E42EE
:1020A00021D183004FF00F0C0CFA03F7BC4305FA63
:1020B00003FC4CEA040491F803C0BCF1280F05D1DD
:1020C00000F1080C08FA0CF8C2F8148091F803C06B
:1020D000BCF1480F07D100F1080C4FF0010808FAD5
:1020E0000CF8C2F81080401C0828CED35460BDE81C
:1020F000F0814FF6FF710180022181700421C170CF
:1021000070470246002093680B400BB1012000E0AD
:10211000002070470146886880B270470246002060
:10212000D3680B400BB1012000E00020704701464E
:10213000C86880B2704701617047416170470AB159
:10214000016100E041617047C16070474FF4803227
:102150000A438261816182618269826970470246B5
:102160000020434B18684FF68073184040EA021075
:1021700008433F4B186070473E49C8617047F0B54F
:102180000A46002300240021002500F00046B6F195
:10219000004F02D1364EF16901E0354E7168C0F34F
:1021A000034583B200F44016B6F5401F08D121F074
:1021B00070612F4E766826F070662D4F7E6012E0BB
:1021C00000F48016B6F5801F06D1032606FA05F442
:1021D000A14341F0706106E0460D360103FA06F6B0
:1021E000B14341F0706122B1460D360103FA06F6A3
:1021F000314300F00046B6F1004F02D11C4EF161B0
:1022000001E01B4E7160F0BD30B500228B071C0F42
:102210000F2303FA04F2164B08338C1053F82430C2
:102220009343134C08348D1044F8253023468C100A
:1022300053F824308C07240F00FA04F423430C4C89
:1022400008348D1044F8253030BD0A49DC3108606F
:102250007047000000080140000C014000100140E0
:102260000014014000180140001C01400020014002
:102270000000014000002042DF48006840F00100FB
:10228000DD49086008464068DC490840DA49486092
:1022900008460068DA490840D749086008460068DF
:1022A00020F4802008600846406820F4FE00486062
:1022B0004FF41F0088607047CF49096821F48031CE
:1022C000CD4A11601146096821F480211160B0F5F2
:1022D000803F03D0B0F5802F0ED106E0C6490968D3
:1022E00041F48031C44A116007E0C349096841F4F0
:1022F000A021C14A116000E000BF00BF704710B5C7
:1023000001460022002300204A11012A02D1BA4CC2
:10231000236806E0022A02D1B74C236A01E0B64CDA
:10232000636A01F01F02012494401C400CB101209B
:1023300000E0002010BD38B50020009000240025EA
:1023400000BF3120FFF7DBFF05460098401C0090DE
:102350000098B0F5A06F01D0002DF2D03120FFF72A
:10236000CEFF08B1012400E00024204638BD01461C
:102370000020A14A106820F0F80040EAC100106077
:102380007047A04908607047024600209A4B586881
:1023900020F47C1042EA01031843974B58607047C1
:1023A00098490866704701460020934A506820F01B
:1023B00003000843506070478F48406800F00C00ED
:1023C0007047014600208C4A506820F0F000084316
:1023D0005060704701460020874A506820F4E06052
:1023E00008435060704701460020834A506820F43B
:1023F000605040EAC1005060704729B17E4A527A6D
:1024000002437D4B5A7204E07B4A527A82437A4BF4
:102410005A7270477B49D8310860704701460020E6
:10242000754A506820F440400843506070470021CE
:10243000714A20321170704A82F82010012802D0AF
:1024400004280AD104E001216B4A2032117005E012
:102450000521694A2032117000E000BF00BF7047BB
:102460006949086070476449096A0143624A116218
:102470007047654944390860704730B50021002233
:10248000002400235C4D6D6805F00C0121B1042986
:1024900005D0082923D105E05C4D056022E05B4DA5
:1024A00005601FE0544D6D6805F47012524D6D6863
:1024B00005F48034022505EB92421CB9544D554376
:1024C00005600BE04C4D6D6805F400351DB1504DB5
:1024D0005543056002E04D4D5543056002E04B4D0C
:1024E000056000BF00BF444D6D6805F0F0010909AB
:1024F000484D6B5C0568DD4045603F4D6D6805F4F7
:10250000E061090A434D6B5C4568DD4085603A4DEA
:102510006D6805F46051C90A3E4D6B5C4568DD404D
:10252000C560354D6D6805F44041890B3A4D6B5CD3
:10253000C568B5FBF3F5056130BD29B12E4A526976
:1025400002432D4B5A6104E02B4A526982432A4BC5
:102550005A61704729B1284A92690243264B9A6111
:1025600004E0254A92698243234B9A61704729B15E
:10257000214AD2690243204BDA6104E01E4AD26943
:1025800082431D4BDA61704729B11B4AD26802436E
:10259000194BDA6004E0184AD2688243164BDA60BD
:1025A000704729B1144A12690243134B1A6104E0BF
:1025B000114A12698243104B1A617047124940391F
:1025C000086070470F49C86470470B49C87170476D
:1025D0000948406A40F080700749486270470146E8
:1025E0000020054A92680A400AB1012000E000205C
:1025F0007047014988727047001002400000FFF8E0
:10260000FFFFF6FE000042428004424200127A00C0
:1026100000093D003B0000204B00002010B504469F
:10262000FE48844208D10121C014FFF7ADFF00210C
:10263000E014FFF7A9FFC4E0B4F1804F08D10121F5
:102640000846FFF7AEFF00210120FFF7AAFFB8E020
:10265000F348844208D101210220FFF7A2FF0021A4
:102660000220FFF79EFFACE0EE48844208D1012132
:102670000420FFF796FF00210420FFF792FFA0E05F
:10268000E948844208D101210820FFF78AFF002190
:102690000820FFF786FF94E0E448844208D1012136
:1026A0001020FFF77EFF00211020FFF77AFF88E05F
:1026B000DF48844208D101212020FFF772FF00216A
:1026C0002020FFF76EFF7CE0DA48844208D1012128
:1026D0004014FFF759FF00216014FFF755FF70E029
:1026E000D548844209D10121C804FFF74DFF0021DC
:1026F0004FF40020FFF748FF63E0D048844209D13F
:1027000001210805FFF740FF00214FF48010FFF77B
:102710003BFF56E0CA48844209D101214805FFF732
:1027200033FF00214FF40010FFF72EFF49E0C548AA
:10273000844208D101214020FFF733FF00214020CF
:10274000FFF72FFF3DE0C048844208D101218020DF
:10275000FFF727FF00218020FFF723FF31E0BB4870
:10276000844208D101218015FFF71BFF0021A0152D
:10277000FFF717FF25E0B648844209D1012108047C
:10278000FFF702FF00214FF48030FFF7FDFE18E055
:10279000B048844209D101214804FFF7F5FE002129
:1027A0004FF40030FFF7F0FE0BE0AB48844208D155
:1027B00001218804FFF7E8FE00214FF48020FFF795
:1027C000E3FE10BD00220288944B98420ED0994B34
:1027D00098420BD0B0F1804F08D0914B984205D071
:1027E000904B984202D0904B984204D14FF68F7391
:1027F0001A404B881A438D4B984207D08C4B984215
:1028000004D04FF6FF431A40CB881A4302808B88CE
:1028100083850B880385814B98420BD0854B98426A
:1028200008D08B4B984205D08A4B984202D08A4BF5
:10283000984201D10B7A038601238382704770B5D9
:10284000002400220023058C4FF6FE7635400584D7
:10285000028C8388048B4FF68F752C40B51E2C405C
:102860000D882C43751E2A400D892A434D882A4322
:102870006A4DA8420BD06F4DA84208D0744DA842B3
:1028800005D0744DA84202D0734DA84213D14FF623
:10289000F7752A404D892A434FF6FB752A408D88EB
:1028A0002A434FF6FF652B404FF6FF552B408D898D
:1028B0002B43CD892B4383800483CD888586028476
:1028C00070BD70B5002400220023058C4FF6EF7612
:1028D00035400584028C8388048B48F6FF752C40B4
:1028E0004FF6FF452C400D884FF6FF7606EA05258A
:1028F0002C434FF6DF752A400D8906EA05152A4359
:102900004D8806EA05152A43444DA84202D0494D98
:10291000A8421DD14FF67F752A404D894FF6FF76AC
:1029200006EA05152A434FF6BF752A408D8806EA48
:1029300005152A434FF6FF352B404FF2FF752B400C
:102940008D8906EA85052B43CD8906EA85052B434B
:1029500083800483CD880587028470BD70B5002410
:1029600000220023058C4FF6FF6635400584028C5B
:102970008388848B4FF68F752C404FF6FC752C4066
:102980000D882C434FF6FF552A400D894FF6FF76F0
:1029900006EA05252A434D8806EA05252A431F4DE8
:1029A000A84202D0234DA8421DD14FF2FF752A4004
:1029B0004D894FF6FF7606EA05252A434FF6FF3587
:1029C0002A408D8806EA05252A434EF6FF752B40DE
:1029D0004DF6FF752B408D8906EA05152B43CD89F1
:1029E00006EA05152B4383808483CD88858702847E
:1029F00070BD70B5002200230024058C4EF6FF76D2
:102A000035400584038C8488828B48F6FF752A4004
:102A10004FF6FF452A400D8820E00000002C0140C1
:102A20000004004000080040000C0040001000407E
:102A30000014004000340140004C014000500140AF
:102A40000054014000180040001C004000200040DD
:102A50000040014000440140004801404FF6FF762D
:102A600006EA05252A434DF6FF752B400D8906EA37
:102A700005352B434D8806EA05352B43FA4DA84210
:102A800002D0FA4DA84208D14BF6FF752C408D8933
:102A90004FF6FF7606EA85152C4384808283CD8825
:102AA000A0F84050038470BD828B4FF2FF331A4070
:102AB0008283828B4FF6FF7303EA01231A438283DA
:102AC0007047F0B50C461546002200210026078C01
:102AD0004EF6FF7C07EA0C070784828B018C4FF6C9
:102AE000FF7707EA043640F6FF473A404FF6FF7794
:102AF00007EA05273A434FF6FF7707EA03373A43D9
:102B0000D94FB8420ED0D94FB8420BD0B0F1804F58
:102B100008D0D74FB84205D0D64FB84202D0D64FD2
:102B2000B84206D14DF6FF77394046F48057394315
:102B300005E047F6FF57394044F480573943828314
:102B40000184F0BD828B4FF6F3731A408283828B2F
:102B50000A4382837047F0B50C46154600220021D7
:102B60000026078C4FF6FF6C07EA0C070784828B60
:102B7000018C4FF6FF7707EA04264FF60C773A40B0
:102B80004FF6FF7707EA03172F433A43B64FB84291
:102B90000ED0B64FB8420BD0B0F1804F08D0B44F32
:102BA000B84205D0B34FB84202D0B34FB84206D1B5
:102BB0004FF6FF57394046F48077394305E04FF22E
:102BC000FF57394044F48077394382830184F0BD54
:102BD000028B4FF2FF331A400283028B4FF6FF73D2
:102BE00003EA01231A4302837047F0B50C461546E9
:102BF000002200210026078C4FF6EF7C07EA0C0725
:102C00000784028B018C4FF6FF7707EA041640F623
:102C1000FF473A404FF6FF7707EA03373A434FF64C
:102C2000FF7707EA05273A438F4FB8420ED08F4F00
:102C3000B8420BD0B0F1804F08D08D4FB84205D0CC
:102C40008C4FB84202D08C4FB84206D14FF6DF7796
:102C5000394046F01007394305E04FF65F773940B9
:102C600044F01007394302830184F0BD028B4FF614
:102C7000F3731A400283028B0A4302837047F0B554
:102C80000C46154600220021068C4FF6FE773E408A
:102C90000684028B018C4FF60C7632407E1C06EACD
:102CA00003162E433243704EB0420ED06F4EB042E8
:102CB0000BD0B0F1804F08D06D4EB04205D06D4EB4
:102CC000B04202D06C4EB04206D14FF6FD76314094
:102CD00044F00106314305E04FF6F576314044F00B
:102CE0000106314302830184F0BD70B505460C46F0
:102CF0005D4885420ED05D4885420BD0B5F1804FCE
:102D000008D05B48854205D05A48854202D05A48CF
:102D1000854200D100E000BF208850B92389A288F5
:102D200061882846FFF7ABFFE1882846FFF79EFF42
:102D300025E0208804280AD12389A28861882846B2
:102D4000FFF753FFE1882846FFF742FF17E020888E
:102D500008280AD12389A28861882846FFF7FBFE4C
:102D6000E1882846FFF7EEFE09E02389A288618802
:102D70002846FFF7A6FEE1882846FFF795FE70BDBE
:102D80002DE9F04105460C4600260127608808B968
:102D9000022600E00026A088012801D1022700E0D9
:102DA00001272088A0B92389A28861882846FFF7D7
:102DB00066FFE1882846FFF759FF23893A463146E6
:102DC0002846FFF712FFE1882846FFF701FF13E0CE
:102DD0002389A28861882846FFF707FFE1882846F3
:102DE000FFF7F6FE23893A4631462846FFF747FFAC
:102DF000E1882846FFF73AFFBDE8F0810A884B8852
:102E00001A438B881A43CB881A430B891A434B8980
:102E10001A438B891A43A0F8442070474FF6FF717C
:102E2000818000210180C1804180017270470021B2
:102E3000018041808180C180018141818181C18186
:102E40007047002101804180012181800021C180E3
:102E5000018170470021018041808180C180018112
:102E60004181818170470000002C01400034014005
:102E70000004004000080040000C004021B102881E
:102E800042F00102028004E002884FF6FE731A400D
:102E90000280704731B1B0F8442042F40042A0F8FB
:102EA000442005E0B0F84420C2F30E02A0F844200C
:102EB00070471AB183890B43838102E083898B4376
:102EC000838170478182704741EA0203A0F848304D
:102ED00070471AB183890B43838102E083898B4356
:102EE0008381704701894FF6F87211400181704764
:102EF0000A46002101894FF68F7319401143018161
:102F0000704730B504460D4629462046FFF7F0FFCE
:102F1000208940F00700208130BD2DE9F0410446B2
:102F20000D4616461F46602D06D13B46012231460E
:102F30002046FFF75AFE05E03B4601223146204677
:102F4000FFF79DFE29462046FFF7D2FF208940F07B
:102F500007002081BDE8F08130B50C4600210189D1
:102F6000C9B24FF6FF7505EA0325154325432943EA
:102F7000018130BD2DE9F04105460E4617469846C1
:102F8000002443463A4631462846FFF7E5FF2C89A0
:102F90004FF6F870044044F007044FF68F70044079
:102FA00044F070042C81BDE8F081F0B504460D4674
:102FB00016461F463B46324629462046FFF7CCFFC1
:102FC000208940F480402081F0BD018582827047D5
:102FD0000A46002101884FF68F7319401143018082
:102FE0007047F0B50C4615461E460021002200230E
:102FF0000189028B038C4FF6F877394021434FF655
:10300000FC473A4040F201173A434FF6DD773B4028
:103010004FF6FF7707EA06172F433B4301810283F0
:103020000384F0BD0A460021018B4FF68F731940CF
:103030001143018370470A460021018B48F6FF7354
:1030400019404FF6FF7303EA0223194301837047C7
:103050000A460021818B4FF68F73194011438183FB
:1030600070470A460021818B48F6FF7319404FF6DE
:10307000FF7303EA022319438183704721B1028859
:1030800042F08002028004E002884FF67F731A400B
:103090000280704721B1828842F00402828004E0FD
:1030A00082884FF6FB731A408280704721B1828874
:1030B00042F00802828004E082884FF6F7731A40DB
:1030C0008280704721B1828842F00102828004E050
:1030D00082884FF6FE731A40828070470A460021AC
:1030E000018B4FF6F77319401143018370470A466D
:1030F0000021018B4FF2FF7319404FF6FF7303EA73
:1031000002231943018370470A460021818B4FF641
:10311000F77319401143818370470A460021818B60
:103120004FF2FF7319404FF6FF7303EA022319436E
:10313000818370470A460021018B4FF6FB731940CB
:103140001143018370470A460021018B4FF6FF337C
:1031500019404FF6FF7303EA0223194301837047B6
:103160000A460021818B4FF6FB731940114381837E
:1031700070470A460021818B4FF6FF3319404FF606
:10318000FF7303EA02231943818370470A46002133
:10319000018B4FF67F7319401143018370470A4634
:1031A0000021018BC1F30E014FF6FF7303EA0223E6
:1031B0001943018370470A460021818B4FF67F73C4
:1031C00019401143818370470A460021818BC1F366
:1031D0000E014FF6FF7303EA022319438183704700
:1031E0000A460021018C4FF6FD73194011430184FA
:1031F00070470A460021018C4FF6F77319401143BE
:10320000018470470A460021018C4FF6DF73194094
:103210004FF6FF7303EA02131943018470470A460D
:103220000021018C4FF67F7319404FF6FF7303EABC
:1032300002131943018470470A460021018C4FF69E
:10324000FF5319404FF6FF7303EA02231943018429
:1032500070470A460021018C4FF2FF7319404FF668
:10326000FF7303EA02231943018470470A460021D1
:10327000018C4DF6FF7319404FF6FF7303EA0233DA
:1032800019430184704730B5002301248C40A3B258
:10329000048C9C430484048C02FA01F5ADB22C43E7
:1032A000048430BD30B5002304248C40A3B2048CC8
:1032B0009C430484048C02FA01F5ADB22C430484CF
:1032C00030BD70B503460020002418461830012593
:1032D0008D40ACB21D8CA5431D8409B1082909D1CC
:1032E00000EB6100056825F0700505600568154371
:1032F00005600EE00D1FC5F34E052844056825F452
:10330000E045056005684FF6FF7606EA022635437C
:10331000056070BD21B1028842F00202028004E023
:1033200002884FF6FD731A400280704721B102886F
:1033300042F00402028004E002884FF6FB731A4058
:103340000280704721B1828842F08002828004E0CE
:1033500082884FF67F731A408280704702884FF64A
:10336000F7731A40028002880A43028070478288FD
:103370004FF68F731A40828082880A43828070479A
:1033800002894FF6F8731A40028102890A430281CA
:10339000704702894FF67F731A40028102890A43FF
:1033A00002817047818470478185704781867047AC
:1033B0000187704781877047A0F8401070470288E6
:1033C0004FF6FF431A40028002880A43028070478A
:1033D0000146888E70470146088F70470146888FE6
:1033E00070470146B1F8400070470146888C70472D
:1033F0000146088D704702460020138A0B400BB12E
:10340000012000E000207047CA430282704730B5B7
:103410000246002000230024158A05EA010395894D
:1034200005EA010413B10CB1012000E0002030BD19
:10343000CA4302827047000010B50446FB4884422C
:1034400009D101218803FFF79FF800214FF4804044
:10345000FFF79AF832E0F648844209D10121480486
:10346000FFF79FF800214FF40030FFF79AF825E0AE
:10347000F048844209D101218804FFF792F8002125
:103480004FF48020FFF78DF818E0EB48844209D113
:103490000121C804FFF785F800214FF40020FFF751
:1034A00080F80BE0E548844208D101210805FFF7C8
:1034B00078F800214FF48010FFF773F810BD2DE964
:1034C000F04786B005460E460024A24600BFA1463E
:1034D0000027B08900B100BF2F462C8A4CF6FF7040
:1034E0000440F08804432C82AC894EF6F31004406B
:1034F000B08831890843718908430443AC81AC8AA0
:103500004FF6FF400440B0890443AC8201A8FEF7A7
:10351000B4FFC648874202D1DDF810A001E0DDF813
:103520000CA0A88900F4004040B10AEBCA0000EBEF
:103530000A1031684900B0FBF1F807E00AEBCA0055
:1035400000EB0A1031688900B0FBF1F86420B8FB89
:10355000F0F004012009642101FB1089A88900F41E
:10356000004040B1322000EBC900B0FBF1F000F0A8
:103570000700044308E0322000EB09106421B0FB8F
:10358000F1F000F00F0004432C8106B0BDE8F08795
:103590004FF41651016000218180C18001810C210E
:1035A000418100218181704710B502460020108AB8
:1035B0004FF2FF0318400B884C8823438C88234329
:1035C000CC8823431843108210BD00210180418024
:1035D0008180C180704721B1828942F4005282818A
:1035E00004E082894DF6FF731A4082817047F0B57E
:1035F0000346002400260025002040F66A17B94241
:1036000000D100BF1846C1F3421401F01F06012784
:1036100007FA06F5012C01D10C3004E0022C01D18F
:10362000103000E014301AB107682F43076002E041
:103630000768AF430760F0BD1AB1838A0B438382EA
:1036400002E0838A8B4383827047028A4FF6F073CD
:103650001A400282028A0A430282704782894FF22C
:10366000FF731A40828182890A438281704721B1A7
:10367000828942F00202828104E082894FF6FD7362
:103680001A4082817047028A4FF6DF731A40028225
:10369000028A0A430282704721B1028A42F48042C0
:1036A000028204E0028A4BF6FF731A4002827047DE
:1036B000C1F308028280704701468888C0F3080081
:1036C0007047818941F0010181817047028BD2B23C
:1036D0000283028B42EA012202837047028B02F4CA
:1036E0007F420283028B0A430283704721B1828AA0
:1036F00042F02002828204E0828A4FF6DF731A4091
:103700008282704721B1828A42F01002828204E0F4
:10371000828A4FF6EF731A408282704721B1828A03
:1037200042F00802828204E0828A4FF6F7731A4060
:103730008282704721B1828942F40042828103E093
:103740008289C2F30E028281704721B1828A42F4DB
:103750000062828204E0828A4FF2FF731A40828202
:103760007047828A4FF6FB731A408282828A0A432C
:103770008282704721B1828A42F00202828204E092
:10378000828A4FF6FD731A408282704702460020FB
:10379000B1F5007F00D100BF13880B400BB10120B1
:1037A00000E00020704701F40072B2F5007F00D104
:1037B00000BFCA430280704770B502460024002350
:1037C0000025002040F66A16B14200D100BFC1F3C7
:1037D000421501F01F03012606FA03F3012D02D161
:1037E0009689334006E0022D02D1168A334001E06B
:1037F000968A33400C12012606FA04F416883440E7
:1038000013B10CB1012000E0002070BD10B5002202
:10381000002340F66A14A14200D100BF0A1201241D
:103820009440A3B2DC43048010BD00000038014086
:103830000044004000480040004C00400050004060
:10384000704700000FB4044910B503AA029800F0B5
:10385000FFF810BC5DF814FB180000202DE9F041C2
:103860000E460446002020622046E168884730B3B7
:10387000252805D0D4E901219047206A401CF2E7B1
:10388000E168204600278847050018D0A5F14100CF
:10389000192802D820354FF40067324629462046C1
:1038A0002760FCF75DFC40B1012804D0F61D26F02E
:1038B00007060836D8E7361DD6E72846DAE7206A35
:1038C000BDE8F0812DE9F041064600241068752915
:1038D000314616A510D0AFF30080002802DA40422E
:1038E00013A507E031688A0701D512A502E0490750
:1038F00004D511A5012401E0AFF3008000210A22C4
:1039000006F1240709E0B0FBF2FCB0FBF2F302FB86
:103910001C00303078541846491C0028F3D1234647
:103920002A463046BDE8F04100F038B800000000FB
:103930002D0000002B0000002000000070B50446A0
:103940000D4621461068AFF300802188090502D595
:103950000F4A7A4402E00E4A7A440E32002104F102
:10396000240305E000F00F060009965D5E54491C33
:103970000028F7D120780023000704D5702D02D04D
:1039800009B1022311322046BDE8704000F006B8AC
:10399000340B000070477047704770472DE9F047BF
:1039A0000D4699469246044600F1240801688806AF
:1039B00004D5E06921F01001216000E00120A84257
:1039C00001DD471B00E00027A1697A1902EB09001D
:1039D000081AA0612078C00602D42046AFF3008008
:1039E000002608E0D4E901211AF806009047206A71
:1039F000401C761C20624E45F4DB2078C0060AD5B8
:103A00002046AFF3008006E0D4E901213020904742
:103A1000206A401C2062381EA7F10107F4DC07E091
:103A2000D4E9012118F805009047206A401C206263
:103A3000281EA5F10105F3DC2046AFF300802078B5
:103A4000000602D50220BDE8F0870120FBE7000058
:103A5000074B70B50D467B4400F011F8044628462C
:103A600000F020F810B14FF0FF3070BD204670BD5F
:103A7000F5CAFFFF01694A1C02610878704700B56A
:103A80008FB0CDE901310021059105497944CDE997
:103A9000031011466846FFF7E1FE0FB000BD0000BD
:103AA000E5FFFFFF007B00F080007047754600F0E7
:103AB0002BF8AE4605006946534620F007008546C0
:103AC00018B020B5FDF716FCBDE820404FF0000609
:103AD0004FF000074FF000084FF0000B21F00701F6
:103AE000AC46ACE8C009ACE8C009ACE8C009ACE839
:103AF000C0098D46704710B50446AFF300802046DC
:103B0000BDE81040FCF741BB00487047D0000020E2
:103B1000491058BFC1F140415B1058BFC3F1404349
:103B20008B42EFF3008070472DE9C04130B4DFF8DD
:103B3000A0C23CEA111418BF3CEA131400F0EC8058
:103B400081EA03051CEA111444EAD57418BF1CEA83
:103B5000131500F0C780A4EB05044FF0004545EABB
:103B6000C12145EAC32341EA505143EA525304F1CB
:103B70007F74994204F500344FEAC0204FEAC22214
:103B800008BF904200F09C804FEA13650FF2401688
:103B9000765D4FEA134506FB05F7C7F1807706FB14
:103BA00007F74FEAD737A7FB03687642C8F5803896
:103BB000A7FB06CE38BFA8F1010807FB08E64FF0C7
:103BC000000EA6FB028CE6FB03CEDCF1000CCEF16E
:103BD000004E38BFAEF1010EA6FB0C584FF00007A7
:103BE0004FF00005E6FB0E87A1FB08C6A0FB07CE41
:103BF00016EB0E0645F10005E1FB076515F1E04EF9
:103C00007EBFA4F580345FEA46066D4116F1800759
:103C100045F100054FEA17274FEA066647EA0567B0
:103C2000A6F1DE46B6F1805F4FEA15251FD938466A
:103C300024F0010C05EBC471BCF1FE6F01EB0C111B
:103C400002D8F0BCBDE8008124425CBF01F5801EB3
:103C50009EEAC47F02D4F0BCBDE80081244238D47F
:103C6000F0BCA1F1C041BDE8004100F059BA4FEAF3
:103C7000D22242EA43524FEAD323A7FB02864FEAFD
:103C8000D02040EA415007FB03661EEA0E0F4FEAC0
:103C9000D12105FB026658BFA6EB0056B6EB0056D5
:103CA0004FEA520E4EEAC37E18EB0E0E56EB530E41
:103CB000BDD518EB02085E417F1C55F10005B6E743
:103CC0004FF480154FF000074FF000064FF000084A
:103CD000ADE7F0BC4FF0000001F1C04101F0004140
:103CE000BDE8008111EA0C1F0CEA131500D00CE0AE
:103CF00013EA0C1F00F025804FF00000F0BC81EAB1
:103D0000030101F00041BDE80081F0BCBDE80041C5
:103D100081EA030100F004BAF0BCBDE8004170B5CF
:103D200000F0B0F9097EFC3E00F007B881EA03011B
:103D30004FF0000001F00041704781EA030100F0FC
:103D4000EFB9F0BCBDE800414FF0000021497047D9
:103D5000FFFDFBF9F7F5F4F2F0EEEDEBE9E8E6E450
:103D6000E3E1E0DEDDDBDAD8D7D5D4D3D1D0CFCDD7
:103D7000CCCBCAC8C7C6C5C4C2C1C0BFBEBDBCBB10
:103D8000BAB9B8B7B6B5B4B3B2B1B0AFAEADACAB0B
:103D9000AAA9A8A8A7A6A5A4A3A3A2A1A09F9F9EE5
:103DA0009D9C9C9B9A999998979796959594939397
:103DB000929191908F8F8E8E8D8C8C8B8B8A89892E
:103DC00088888787868585848483838282818180B1
:103DD0000000FF070000F87F4FEA41034FEA53530A
:103DE000A3F58063D3F11E03C8BFD3F1210C0CDD12
:103DF0004FF0004242EAC12242EA505232FA03FC3A
:103E00008CEAE17CACEBE1707047102BC4BF002062
:103E1000704703F5787CBCF1FF3F04D06FF000429F
:103E200082EA2100704770B500F02CF94992248095
:103E300000207047F2E700004FEA1153A3F58063BA
:103E4000D3F11E03A8BFD3F1200C08DB4FF00042D2
:103E500042EAC12252EA505232FA03F07047094254
:103E60000BD4102BC4BF0020704703F5787CBCF145
:103E7000FF3F05D04FF0FF3070474FF00000704714
:103E800070B500F0FFF800BF499224800020704711
:103E9000F0E7B0FA80F310FA03F10AD0C3F11D0382
:103EA00003F580634FEA41504FEA035202EBD12100
:103EB00070474FF00000704751EA030C17D41CF50F
:103EC000801F58BFBCF5801F00F10680994218BFC3
:103ED000704708BF9042704707D711F5801F58BF41
:103EE00013F5801F19D499427047894270471CF519
:103EF000801F08D5BCF5801FF7D58B4218BF7047CF
:103F000008BF824270474FF4001C1CEB410F38BFC2
:103F10001CEB430F01D28B42704770B500F0B2F832
:103F2000922449004FF000514FF08053FFF7F0BD4D
:103F3000DFF848C170B51CEA111E1EBF1CEA13153C
:103F40009EEA0C0F95EA0C0F00F06F8081EA0304E3
:103F500023EA4C134EEAD47E21EA4C1141F480113D
:103F600043F48013AE44A1FB024CA0FB0365AEF109
:103F70007F7E361955EB0C05A1FB034C4CF1000379
:103F8000A0FB021C16EB0C06654153F1000309422D
:103F900018BF46F0010613F4007F0BD14FEA03313E
:103FA0004FEA0530340341EA155140EA16506FF0EC
:103FB00003020AE04FEAC3214FEAC520F40241EAB6
:103FC000555140EA56506FF0020202EB2E4201EBCF
:103FD000025585EACE710AD05FEA440C18BF24F07E
:103FE000004450F1000041F1000120EAD47040F299
:103FF000FE7C624500D270BDA84214BF4FF08044E1
:104000004FF04044002E08BF0024BEF1806FA8BFCF
:10401000A1F1C041BDE8704080F282804FF0000005
:1040200001F1C04101F0004170479EEA0C0F0CEA1B
:10403000131518BF95EA0C0F06D04FF0000081EA67
:10404000030E0EF0004170BD00F01CF88900013E27
:1040500000F007B800F009B84FEA430C5FEA5C5C77
:1040600008D081EA030100F05BB84FEA410C5FEA37
:104070005C5CF6D14FF00000014970470000FF077B
:104080000000F87F0EF1020E2EF0030E5EF8046BB6
:10409000364205D4012A43EB030515F5001F12D85B
:1040A000012841EB010C1CF5001F0CD80ED14FEA82
:1040B000D17C15F5001F0CEB4C0C0CF1020C08BF69
:1040C0004CEBD37C04E04FF0080C01E04FEAD37CCA
:1040D0000CEB4C0526FA05F606F00706B6F1040CC3
:1040E00006D20EEB860CBDE870404CF0010C604728
:1040F000DFE80CF0090B02024FF000414FF0000026
:10410000A1F5002170BD19461046012851EB0104AC
:1041100018BFD4F5001484BF002001F0004170BD29
:104120000808A0F500114FEA3101704753EA010C6D
:1041300017D41CF5801F58BFBCF5801F00F1068006
:104140008B4218BF704708BF8242704707D713F5EC
:10415000801F58BF11F5801F19D48B4270479B42B6
:1041600070471CF5801F08D5BCF5801FF7D5994214
:1041700018BF704708BF904270474FF4001C1CEBFB
:10418000430F38BF1CEB410F01D2994270470FB467
:104190000CBC03BCFFF7C1BE43004FEAD30C4FEA8F
:1041A0003C0C43401FBF40070CF1605113F0FE4F21
:1041B00070471CF0006F03D100200CF000417047E5
:1041C0000CF0004343EA507010B540EACC0000F018
:1041D0009CF800BF000000924FEA0001FFF7A0BF6B
:1041E0004FF000414FF00000A1F5002170470000A2
:1041F00090EA010F48BF81F0004100F1D880421AD7
:104200003CBF801A89184FEAD0524FF07F4C1CEA0D
:10421000410FA2EBD15318BF9CEA026F00F03B8024
:104220004FF0004C4CEA00204CEA012121FA03FC3B
:1042300010EB0C0C1ED202F1FF325FEA1C2040EBA7
:10424000C25038BF70471CF07F0F4FEA400C18BFB8
:10425000BCF17F4F38BF7047C3F12003994008BFBE
:1042600020F00100BCF17F4F38BF7047A0F1C04083
:1042700000F091B84FEA3C00000A40EBC25028BF62
:104280001CF0FF0F4FEA400CE6D018BFBCF17F4F87
:1042900038BF7047EAE79CEA026F05D010EA5C0F6E
:1042A00008BF00F00040704710B500F02EF800BFC6
:1042B00064FBBE3E10F0004148BF4042B0FA80F3BC
:1042C00010FA03F2C3F19D030BD051EAC35101EB85
:1042D0001220530638BF704700F1010008BF20F0DC
:1042E00001007047B0FA80F310FA03F2C3F19D03A6
:1042F0000AD0D90501EB1220530638BF704700F1F0
:10430000010008BF20F0010070470EF1020E2EF0F0
:10431000030E5EF8044B244204D44FEA4102B2F18A
:104320007F4F11D84FEA4003B3F17F4F0CD80ED125
:104330004FEAD07CB2F17F4F0CEB4C0C0CF1020C2D
:1043400008BF4CEBD17C04E04FF0080C01E04FEAD1
:10435000D17C0CEB4C0324FA03F404F00704B4F111
:10436000040C06D20EEB840CBDE810404CF0010C9E
:104370006047DFE80CF0070802024FF00040A0F5AC
:10438000800010BD0846420018BFD2F1807288BF7D
:1043900000F0004010BDFF2141EAD050C005704739
:1043A00090EA010F48BF81F000413FF528AF421A63
:1043B00004D882F00042A0EB020011444FEAD05230
:1043C0004FF07F4C1CEA410FA2EBD15318BF9CEA7F
:1043D000026F4AD04FF0004C4CEA00204CEA012119
:1043E00021FA03FCB0EB0C0C0FD412F0FE0F36D008
:1043F0005FEA4C001DD5001240EBC25038BF704739
:104400001CF03F0F18BF70470BE0A2F101025FEAFA
:104410001C2040EBC25038BF70471CF07F0F18BF04
:104420007047C3F12003994014BF401E20F00100E3
:10443000704780084FEA122308BF7047B0FA80FC2B
:10444000A2EB0C02CCF1280C60FA0CF093EA122FCC
:1044500004BF00EBC25070474FEAC3707047130AA5
:104460005FEADC1008BF7047F6E79CEA026F04D0F1
:1044700010EA5C0F08BF0020704710B5FFF745FF3A
:1044800040DFF63E81F00040704730313233343542
:104490003637383941424344454640305800303180
:1044A000323334353637383961626364656640309B
:1044B00078000000D44400080000002050000000F4
:1044C000280100082445000850000020E0060000F4
:1044D0004401000800A24A0400000000000000009F
:1044E00001020304060708090000000000000000A4
:1044F00000000000000000000000000000000000BC
:1045000000000000000000000000000000000000AB
:104510000000000102030401020304060708090267
:044520000406080085
:04000005080000ED02
:00000001FF
